:04000000803119280A
:100008007E1480310B1F09280A2817282100111C8B
:100018000E280F2817282000111C13281428172829
:100028008031882080317E10090080311B28F4013E
:10003800F501F601F7017E10200080314E282200DC
:100048008C018D018E013E3021008C00F0308D0036
:10005800FF308E00023023008C0030308D00CF300E
:100068008E003F3024008C00F0308D00FF308E0071
:1000780021009513043027008C008D01FF308E007D
:1000880022009D012700910192019301940195019D
:10009800960108008031AE2080318B170B17033092
:1000A8002000A1000830A0007730890B5928A00B48
:1000B8005928A10B5928031022000C1C03140318FB
:1000C8006628692822000C146B2822000C1053287B
:1000D80080311928A03020009900FC309700173093
:1000E80096001708F7001608F600F030FA000030FE
:1000F800FB008031E620803120001110210011140E
:100108003130200098000800200011107708F9000D
:100118007608F80080319D20803170087104031939
:10012800962897289C2871088A0070080A00803150
:1001380008002000181DA128A228A928181079084D
:100148009700780896001814AD2879089700780861
:10015800960008008031DE208031803123208031F4
:100168008031D520803180316E2080318031CA20A5
:10017800803108006E340034003400340034003418
:1001880000340034E6340034003400348B1021008D
:1001980015170030FA000030FB008031EB20803169
:1001A800080025009E01043026009300803091004D
:1001B8009201080078302100990022009601210060
:1001C800980108007B08F1007A08F00008007B0815
:0A01D800F3007A08F20008000800A6
:020000040001F9
:04000E00E43FFF3E8E
:00000001FF
